:020000020000FC
:100000007BC00000000000000000000008958F93F6
:100010009F93F7DF0197E9F78F919F91089577EF0D
:100020007A950000E9F7000008958F939F9380E18F
:1000300090E0F5DF0197E9F79F918F9108958F93F5
:100040009F93F3DF0197E9F78F919F9108958F9325
:1000500099B19F70807F890F8BB95B9A0000000077
:100060005B988F918295807F890F8BB95B9A000096
:1000700000005B9808955A9AEADF8AEF90E0C7DFA4
:1000800008955A98E4DF8AEF90E0C1DF089581E097
:10009000F8DF85E090E0D3DF089588EC90E0CFDFD3
:1000A00080E38BB95B9A000000005B988AEF90E0D8
:1000B000AEDF80E38BB95B9A000000005B988AEFAB
:1000C00090E0A5DF80E38BB95B9A000000005B98AD
:1000D0008AEF90E09CDF80E28BB95B9A0000000021
:1000E0005B988AEF90E093DF88E2CBDF8CE0C9DF9A
:1000F000CEDF86E0C6DF08958FEF8DBF88E08EBF2C
:00000001FF
