:100000000C945A000C947D000C947D000C947D009F
:100010000C947D000C947D000C947D000C947D006C
:100020000C947D000C947D000C947D000C947D005C
:100030000C947D000C947D000C947D000C947D004C
:100040000C947D000C947D000C947D000C947D003C
:100050000C947D000C947D000C947D000C947D002C
:100060000C947D000C947D000C947D000C947D001C
:100070000C947D000C947D000C947D000C947D000C
:100080000C947D000C947D000C947D000C947D00FC
:100090000C947D000C947D000C947D000C947D00EC
:1000A0000C947D000C947D000C947D000C947D00DC
:1000B0000C947D0011241FBECFEFD8E0DEBFCDBF72
:0C00C0000E9466000C946400F894FFCFCE
:1000CC008FEF8AB91BB82FEF33ED90E321503040FE
:1000DC009040E1F700C000008BB92FEF33ED90E3B7
:0E00EC00215030409040E1F700C00000EBCF03
:0400FA000C94000062
:00000001FF
