:020000020000FC
:0200000024C01A
:1000080000C0AF939F938F938FB78F9385E090E055
:100018003CD08CB38170D1F785B1817029F0AFEFF6
:10002800A5B984EF91E031D0A1E0A5B960E082E004
:100038008CBB8F918FBF8F919F91AF9188E893E18F
:1000480018958FEF8DBF88E08EBFAFEFA4B98CE015
:100058008093690082E08DBB789461E0AA27A5B9F6
:100068006130F1F3A1E0A5B988E893E10ED061E031
:10007800AA27A5B9F5CF77EF7A950000E9F7000030
:100088000895F9DF6150E9F7089503D00197E9F77A
:08009800089560E1F6DF089510
:00000001FF
