:100000000C945A000C94E6000C94E6000C94E60064
:100010000C94E6000C94E6000C94E6000C94E600C8
:100020000C94E6000C94E6000C94E6000C94E600B8
:100030000C94E6000C94E6000C94E6000C94E600A8
:100040000C94E6000C94E6000C94E6000C94E60098
:100050000C94E6000C94E6000C94E6000C94E60088
:100060000C94E6000C94E6000C94E6000C94E60078
:100070000C94E6000C94E6000C94E6000C94E60068
:100080000C94E6000C94E6000C94E6000C94E60058
:100090000C94E6000C94E6000C94E6000C94E60048
:1000A0000C94E6000C94E6000C94E6000C94E60038
:1000B0000C94E60011241FBECFEFD8E0DEBFCDBF09
:0C00C0000E948E000C94CC00F894FFCF3E
:1000CC00CF93DF93ECEBF0E024EAA9EBB0E0CBEBC1
:1000DC00D0E034E844E9208390819923ECF79C919B
:1000EC00987F983011F09031B1F7888330839081EC
:1000FC009923ECF79C91987F903211F0983529F464
:10010C004083908194FDFDCFE6CFDF91CF91089590
:10011C000E94E00060E086E00E94BA0084B184B9DD
:10012C0083B183B183B183B161E082E00E94BA00F4
:10013C002FEF83EC99E0215080409040E1F700C014
:04014C000000EECFF2
:100150008093BB0084E88093BC00ECEBF0E08081EE
:100160008823ECF79091B900987F81E0983209F4E8
:0401700080E008958E
:10017400CF93DF93D82FC62F80E40E9466008D2F83
:100184000E94A8008C2F0E94A8000E94D700DF9133
:04019400CF9108956A
:10019800EC010E94EB000E94EA00CE010E94EC00F4
:0601A800CE010E94E800F8
:1001AE0084E98093BC00ECEBF0E0808184FDFDCF10
:0201BE000895A2
:0C01C0001092B90088E48093B800089504
:0401CC000C9400008F
:0401D0000E94640025
:0201D40008958C
:0201D60008958A
:0201D800089588
:00000001FF
