:020000020000FC
:040000000C941B0041
:100034001895F0E0ECEA08E00EBF0FEF0DBF0FEFEC
:1000440004B900E005B900E00AB98CE080938100AE
:1000540081E88093800000270093890006E0E00F88
:10006400449140938800EC3A19F04B9BEA954491F3
:10007400E83B19F04C9BE39544918827992780E04D
:1000840091E00BD0EECF77EF7A950000E9F700000E
:100094000895F9DF6150E9F7089503D00197E9F76E
:1000A400089560E1F6DF0895081C3044586C80948C
:0600B400A8BCD0E4F80036
:00000001FF
