:020000020000FC
:02000000CBC073
:100054007BC00000000000000000000008958F93A2
:100064009F93F7DF0197E9F78F919F91089577EFB9
:100074007A950000E9F7000008958F939F9380E13B
:1000840090E0F5DF0197E9F79F918F9108958F93A1
:100094009F93F3DF0197E9F78F919F9108958F93D1
:1000A40099B19F70807F890F8BB95B9A0000000023
:1000B4005B988F918295807F890F8BB95B9A000042
:1000C40000005B9808955A9AEADF8AEF90E0C7DF50
:1000D40008955A98E4DF8AEF90E0C1DF089581E043
:1000E400F8DF85E090E0D3DF089588EC90E0CFDF7F
:1000F40080E38BB95B9A000000005B988AEF90E084
:10010400AEDF80E38BB95B9A000000005B988AEF56
:1001140090E0A5DF80E38BB95B9A000000005B9858
:100124008AEF90E09CDF80E28BB95B9A00000000CC
:100134005B988AEF90E093DF88E2CBDF8CE0C9DF45
:10014400CEDF86E0C6DF0895AF93BF939F938F936E
:100154008FB78F934091780050917900C0DFA42F1E
:10016400B52F3FD037D08EE20E9465008AE0A89F69
:10017400A02DB12D2FD08AE0A89FA02DB12D2AD07B
:1001840084B1806184B98F918FBF8F919F91BF910A
:10019400AF911895F2E0EEE68FEF8DBF88E08EBF49
:1001A400A1E4A0937C00AFE8A0937A00A7E0AD7F20
:1001B400A7B98FEF8AB9882778940E947700AA2775
:1001C400BB27A0917A00A064A0937A0093E088EE04
:1001D4005EDFF7CF8F9324D048D00E9465008F91C3
:1001E40008950F921F926F930A2E1B2E69E127D058
:1001F40016940794169407941694079416940794E7
:1002040065E01DD0169407941694079416940794E9
:1002140016940794A02DB12D6F911F900F900895FF
:1002240080E0B13012F4A43648F08395D297D29787
:10023400B130DAF7A894A43608F0F7CF08956F9395
:100244007F938F939F9377278827912D069E802DE8
:10025400712D969F700D08F47395710D082E172E4D
:100264009F918F917F916F91089590E38030C9F0B1
:1002740091E38130B1F092E3823099F093E38330DB
:1002840081F094E3843069F095E3853051F096E38E
:10029400863039F097E3873021F098E3883009F00D
:0602A40099E3892F089583
:00000001FF
