:020000020000FC
:02000000C6C078
:100054007BC00000000000000000000008958F93A2
:100064009F93F7DF0197E9F78F919F91089577EFB9
:100074007A950000E9F7000008958F939F9380E13B
:1000840090E0F5DF0197E9F79F918F9108958F93A1
:100094009F93F3DF0197E9F78F919F9108958F93D1
:1000A40099B19F70807F890F8BB95B9A0000000023
:1000B4005B988F918295807F890F8BB95B9A000042
:1000C40000005B9808955A9AEADF8AEF90E0C7DF50
:1000D40008955A98E4DF8AEF90E0C1DF089581E043
:1000E400F8DF85E090E0D3DF089588EC90E0CFDF7F
:1000F40080E38BB95B9A000000005B988AEF90E084
:10010400AEDF80E38BB95B9A000000005B988AEF56
:1001140090E0A5DF80E38BB95B9A000000005B9858
:100124008AEF90E09CDF80E28BB95B9A00000000CC
:100134005B988AEF90E093DF88E2CBDF8CE0C9DF45
:10014400CEDF86E0C6DF0895AF93BF939F938F936E
:100154008FB78F934091780050917900C0DFA42F1E
:10016400B52F28D0B0DF3BD08EE2ADDF23D0ABDF9C
:1001740036D020D0A8DF33D082E08CBB8F918FBFE4
:100184008F919F91BF91AF911895F1E0E4EF8FEFBC
:100194008DBF88E08EBFA1E4A0937C00AFE8A0935C
:1001A4007A00A7E0AD7FA7B978949FDF93E088EE4B
:1001B4006EDFFCCFAF93BF9306D00CD0EA0F8491CF
:1001C400BF91AF910895A4362CF4B0301CF4A02D47
:1001D400B12D08951A97A030ECF7A65F0895AF9358
:1001E4008F9389E01A978A95E9F78F91AF910895D3
:0A01F40030313233343536373839F4
:00000001FF
