:020000020000FC
:02000000C7C077
:100054007BC00000000000000000000008958F93A2
:100064009F93F7DF0197E9F78F919F91089577EFB9
:100074007A950000E9F7000008958F939F9380E13B
:1000840090E0F5DF0197E9F79F918F9108958F93A1
:100094009F93F3DF0197E9F78F919F9108958F93D1
:1000A40099B19F70807F890F8BB95B9A0000000023
:1000B4005B988F918295807F890F8BB95B9A000042
:1000C40000005B9808955A9AEADF8AEF90E0C7DF50
:1000D40008955A98E4DF8AEF90E0C1DF089581E043
:1000E400F8DF85E090E0D3DF089588EC90E0CFDF7F
:1000F40080E38BB95B9A000000005B988AEF90E084
:10010400AEDF80E38BB95B9A000000005B988AEF56
:1001140090E0A5DF80E38BB95B9A000000005B9858
:100124008AEF90E09CDF80E28BB95B9A00000000CC
:100134005B988AEF90E093DF88E2CBDF8CE0C9DF45
:10014400CEDF86E0C6DF0895AF93BF939F938F936E
:100154008FB78F934091780050917900C0DFA42F1E
:10016400B52F34D02AD0AFDF56D08EE2ACDF25D005
:10017400AADF51D022D0A7DF4ED082E08CBB8F9172
:100184008FBF8F919F91BF91AF911895F2E0E2E6F6
:100194008FEF8DBF88E08EBFA1E4A0937C00AFE811
:1001A400A0937A00A7E0AD7FA7B978949EDFA4E678
:1001B400BB270CD002D02FD0FDCFBF93AF9325D057
:1001C400E2E6EA0F8491AF91BF9108950F921F92D6
:1001D4006F930A2E1B2E69E12CD016940794169463
:1001E4000794169407941694079465E022D0169405
:1001F4000794169407941694079416940794A02DC4
:10020400B12D6F911F900F900895AA301CF01A978A
:10021400AA30ECF708959F938F938A2F9B2FAA27D8
:10022400BB270A9711968030E4F711978F919F911D
:1002340008956F937F938F939F9377278827912DAA
:10024400069E802D712D969F700D08F47395710D87
:10025400082E172E9F918F917F916F9108953031C1
:080264003233343536373839E6
:00000001FF
