:100000000C945A000C9486000C9486000C94860084
:100010000C9486000C9486000C9486000C94860048
:100020000C9486000C9486000C9486000C94860038
:100030000C9486000C9486000C9486000C94860028
:100040000C9486000C9486000C9486000C94860018
:100050000C9486000C9486000C9486000C94860008
:100060000C9486000C9486000C9486000C948600F8
:100070000C9486000C9486000C9486000C948600E8
:100080000C9486000C9486000C9486000C948600D8
:100090000C9486000C9486000C9486000C948600C8
:1000A0000C9486000C9486000C9486000C948600B8
:1000B0000C94860011241FBECFEFD8E0DEBFCDBF69
:0C00C0000E9466000C947B00F894FFCFB7
:1000CC0082E084B915B81AB881E8809380008CE07E
:1000DC008093810010928900E8E8F0E080E880834A
:0A00EC0093B113B893B113B8FACF23
:1000F600EC010E948B000E948A00CE010E948C00B7
:06010600CE010E948800FA
:04010C000C9400004F
:040110000E946400E5
:0201140008954C
:0201160008954A
:02011800089548
:00000001FF
