:020000020000FC
:0200000032C00C
:100004000EC0A92F92307FB771FDA3E093307FB764
:1000140071FDA7E094307FB771FDAFE00895AF9311
:100024009F938F938FB78F9380E590E032D08CB3FA
:100034008170D1F7992743B140FD939541FD939584
:1000440042FD939543FD939584E0891B982FD9DF56
:10005400A8B982E08CBB8F918FBF8F919F91AF9194
:1000640018958FEF8DBF88E08EBFAFEFA7B9AA2791
:10007400A4B9AAB980E08093690081E08DBB78942B
:10008400AA27A8B980E09DE704D0A395A032C1F3C4
:10009400F8CF79EF7A950000E9F70197D1F7089541
:00000001FF
